:0400000007EF00F016
:10000800018218ED03F0CCEF0EF071EC0CF075ECFA
:100018000FF0E3EC0FF0D0B814EF00F016EF00F09B
:100028002FEF00F0D088C5EC0FF0A60E0001826F0C
:100038007E0E836F9CEC0EF0020E0001906F450E51
:100048008F6FA90EE82EFED78F2FFCD7902FFAD7E7
:1000580000D05BEF00F0D0B234EF00F036EF00F0E4
:1000680050EF00F0D082C5EC0FF0F30E0001826F64
:100078007E0E836F9CEC0EF0020E0001906F450E11
:100088008F6FA90EE82EFED78F2FFCD7902FFAD7A7
:1000980000D0446A5BEF00F0C5EC0FF05B0E000186
:1000A800826F7F0E836F9CEC0EF020EF00F0C5ECA2
:1000B8000FF0F4EF02F03F6AC5EC0FF0050E0001F7
:1000C800826F7F0E836F9CEC0EF0020E0001906F22
:1000D800E70E8F6F000EE82EFED78F2FFCD7902FDC
:1000E800FAD70000C5EC0FF0D20E0001826F7F0E28
:1000F800836F9CEC0EF0C00E8FEC0FF0366A3C6AF2
:10010800010E3B6E3E6A000EEBEC0FF0246E010E02
:10011800EBEC0FF0236E020EEBEC0FF0226EE3EF28
:1001280000F03150D8B49BEF00F09DEF00F09FEF46
:1001380000F0F9EC0EF03C50D8B4A5EF00F0A7EFB2
:1001480000F0E3EF00F03E6A3F04D8A4AEEF00F001
:10015800B0EF00F0BEEF00F0010E2D6E22C039F0B6
:1001680024C037F023C038F0030E446ECDEC0BF0FA
:10017800EBEF00F0020E3F18D8A4C5EF00F0C7EF70
:1001880000F0CBEF00F0010E446EEBEF00F0C5EC91
:100198000FF0F40E0001826F7F0E836F9CEC0EF05F
:1001A800020E0001906FE70E8F6F000EE82EFED74B
:1001B8008F2FFCD7902FFAD70000EBEF00F03C50C0
:1001C800D8B4E9EF00F0EBEF00F095EF00F03B6AF0
:1001D800F4EF02F09DEC07F0366A8C0E0001826F96
:1001E8007F0E836F9CEC0EF0040E0001906F2C0EB6
:1001F8008F6FAB0EE82EFED78F2FFCD7902FFAD734
:1002080000D0010E2D6E396A3C6A366A020E446EC1
:10021800F4EF02F03E6AC5EC0FF0CFEC0FF0710E70
:100228000001826F836B9CEC0EF0C00E8FEC0FF018
:10023800010E3B6E2AEF01F03150D8B426EF01F0E1
:1002480028EF01F02AEF01F0F9EC0EF03C50D8B499
:1002580030EF01F032EF01F020EF01F0020E3E60C6
:1002680038EF01F03AEF01F047EF01F03F6A39C08B
:1002780082F00001836B856B0A0E846F00EC0AF034
:1002880000018251396E030E3E6E3F5039263C0EF6
:10029800396051EF01F053EF01F05BEF01F0395095
:1002A800D8A459EF01F05BEF01F07FEF01F0C5EC46
:1002B8000FF0B90E0001826F7F0E836F9CEC0EF079
:1002C800020E0001906FE70E8F6F000EE82EFED72A
:1002D8008F2FFCD7902FFAD700003150D8B477EF82
:1002E80001F079EF01F07BEF01F0F9EC0EF0010E6F
:1002F800446EF4EF02F039C038F03850395C376E8C
:1003080039C01CF0020E36EC0FF0030E446EF4EF09
:1003180002F0010E3D6EC5EC0FF0C60E0001826FB3
:100328007F0E836F9CEC0EF0020E00018A6F38502E
:100338004FEC08F0C00E8FEC0FF0DE0E0001826F5C
:100348007F0E836F9CEC0EF0020E00018A6F39500D
:100358004FEC08F039503718D8B4B5EF01F0B7EFC3
:1003680001F04DEF02F03150D8B4BDEF01F0BFEF0E
:1003780001F0C1EF01F0F9EC0EF03A50D8B4C7EF34
:1003880001F0C9EF01F0CBEF01F03DEF02F0256A73
:10039800266A040E2664D3EF01F0D5EF01F0D7EFFB
:1003A80001F0E6EF01F0C1EC0AF02526110E00017C
:1003B8008F6F3A0EE82EFED78F2FFCD70000262A23
:1003C800CDEF01F025C082F00001836B856B050E2F
:1003D800846F00EC0AF000018251416E190E000191
:1003E8008F6F580EE82EFED78F2FFCD70000040E13
:1003F800416401EF02F003EF02F0B7EF01F0090EDC
:10040800416009EF02F00BEF02F0B7EF01F03DEFAA
:1004180002F0410E00018F6FEE0EE82EFED78F2FEF
:10042800FCD70000256A266A040E26641EEF02F037
:1004380020EF02F022EF02F031EF02F0C1EC0AF0F7
:100448002526110E00018F6F3A0EE82EFED78F2F4A
:10045800FCD70000262A18EF02F025C082F0000120
:10046800836B856B050E846F00EC0AF000018251E6
:10047800416E050E416443EF02F045EF02F04DEF87
:1004880002F0070E41644BEF02F04DEF02F00DEF62
:1004980002F03A50D8A453EF02F055EF02F098EF6B
:1004A80002F0A30E00018F6F550EE82EFED78F2F96
:1004B800FCD73950375CD8B064EF02F066EF02F031
:1004C80073EF02F0366A372A380637C01CF0000E80
:1004D80036EC0FF038C01CF0010E36EC0FF037C0C8
:1004E8001CF01D6A1F6A0A0E1E6E1FEC0BF01C50D2
:1004F8001D10D8A482EF02F084EF02F098EF02F00A
:1005080039503718D8B48BEF02F08DEF02F098EF1E
:1005180002F08984520E00018F6F290EE82EFED753
:100528008F2FFCD700D089943A6ACDEC0BF0BBEC46
:100538000FF08B0E8FEC0FF0020E00018A6F38500F
:100548004FEC08F039503718D8A4ADEF02F0AFEFF0
:1005580002F0AEEF01F08984C5EC0FF0600E0001E7
:10056800826F836B9CEC0EF0020E0001906FE70E19
:100578008F6F000EE82EFED78F2FFCD7902FFAD75B
:10058800000089944168040E446EF4EF02F03C6A5E
:10059800EAEF02F03150D8B4D4EF02F0D6EF02F00F
:1005A800D8EF02F0F9EC0EF03C50D8B4DEEF02F0D0
:1005B800E0EF02F0EAEF02F03C6A396A3E6A070EA1
:1005C800436E04EC10F08C6A7BEF01F03C50D8B419
:1005D800F0EF02F0F2EF02F0CEEF02F07BEF01F065
:1005E800445000018F6F906B9051000AD8B4FFEF10
:1005F80002F0F4EF02F08F51000AD8B45FEF00F078
:10060800010AD8B4EEEF00F0030AD8B40EEF01F0F7
:10061800010AD8B48DEF01F0070AD8B4CBEF02F085
:10062800F4EF02F007EF00F00600F3CF16F0F4CF76
:1006380017F0F6CF18F0F7CF19F0F8CF1AF0F5CF7A
:100648001BF03050D8B42BEF03F02EEF03F0010E5F
:100658002FEF03F0000E306EF2A435EF03F037EF02
:1006680003F091EF03F02D50D8B43DEF03F03FEFC6
:1006780003F05BEF03F04050D8B445EF03F047EFC9
:1006880003F051EF03F0272A010E27644EEF03F021
:1006980050EF03F051EF03F0406A3050D8B457EFF1
:1006A80003F059EF03F05BEF03F0ACEC06F0C20E79
:1006B800D76EF70ED66EF29489723650D8A467EFCB
:1006C80003F069EF03F073EF03F03250D8B46FEF23
:1006D80003F071EF03F073EF03F0898A326A362A68
:1006E800140E36607AEF03F07CEF03F07FEF03F02F
:1006F800326A91EF03F0280E366085EF03F087EF3A
:1007080003F08CEF03F0899A010E326E91EF03F03B
:100718008992000E5CEC0DF003009EAA96EF03F0A0
:1007280098EF03F09EEF03F0AECF2CF02C5078EC4E
:1007380005F0366AF2A0A3EF03F0A5EF03F06AEF25
:1007480005F0F00E8118D8B4ACEF03F0AEEF03F06B
:100758003AEF05F03B04D8A4B4EF03F0B6EF03F08A
:100768003AEF05F0FE0E8A6E81B8BDEF03F0BFEFD9
:1007780003F0C8EF03F039C038F03850395C376EF1
:10078800010E3A6E38EF05F081BACDEF03F0CFEFE6
:1007980003F0E0EF03F03E2A030E3E60D6EF03F0CD
:1007A800D8EF03F038EF05F03F6A010E106E3F50A6
:1007B800FAEC08F038EF05F081BCE5EF03F0E7EF5D
:1007C80003F0EEEF03F039C037F0386A1FEC0CF095
:1007D800C4EF03F081BEF3EF03F0F5EF03F000EF91
:1007E80004F089AAFAEF03F0FDEF03F0898AFEEF1F
:1007F80003F0899A38EF05F0FD0E8A6E81B807EF8D
:1008080004F009EF04F01BEF04F03E2A030E3E60EB
:1008180010EF04F012EF04F038EF05F0070E3F6E0A
:10082800010E106E3F50FAEC08F038EF05F081BA6F
:1008380020EF04F022EF04F034EF04F03E2A030E18
:100848003E6029EF04F02BEF04F038EF05F0080EB6
:100858003F6E010E106E3F50FAEC08F038EF05F0CD
:1008680081BC39EF04F03BEF04F04DEF04F03E2A71
:10087800030E3E6042EF04F044EF04F038EF05F059
:10088800090E3F6E010E106E3F50FAEC08F038EF7B
:1008980005F081BE52EF04F054EF04F08AEF04F043
:1008A8003E04D8A45AEF04F05CEF04F069EF04F0BA
:1008B800396AC00EA5EC0FF0200E9AEC0FF0C00EAE
:1008C800A5EC0FF03E0638EF05F0020E3E18D8A44E
:1008D80070EF04F072EF04F087EF04F0C10EA5EC9E
:1008E8000FF0200E9AEC0FF0C10EA5EC0FF039C0F6
:1008F80008F0096A0B6A0A0E0A6E61EC0AF00850E1
:100908003F6E66EF04F0000038EF05F0FB0E8A6ECC
:1009180081B891EF04F093EF04F0A5EF04F03E2ABC
:10092800030E3E609AEF04F09CEF04F038EF05F0F8
:10093800040E3F6E010E106E3F50FAEC08F038EFCF
:1009480005F081BAAAEF04F0ACEF04F0BEEF04F0B2
:100958003E2A030E3E60B3EF04F0B5EF04F038EF23
:1009680005F0050E3F6E010E106E3F50FAEC08F0D0
:1009780038EF05F081BCC3EF04F0C5EF04F0D7EF02
:1009880004F03E2A030E3E60CCEF04F0CEEF04F0F4
:1009980038EF05F0060E3F6E010E106E3F50FAEC70
:1009A80008F038EF05F081BEDCEF04F0DEEF04F06C
:1009B800E2EF04F0010E316E38EF05F0F70E8A6EA3
:1009C80081B8E9EF04F0EBEF04F0FDEF04F03E2A04
:1009D800030E3E60F2EF04F0F4EF04F038EF05F098
:1009E800010E3F6E010E106E3F50FAEC08F038EF22
:1009F80005F081BA02EF05F004EF05F016EF05F0F7
:100A08003E2A030E3E600BEF05F00DEF05F038EFC0
:100A180005F0020E3F6E010E106E3F50FAEC08F022
:100A280038EF05F081BC1BEF05F01DEF05F02FEF47
:100A380005F03E2A030E3E6024EF05F026EF05F090
:100A480038EF05F0030E3F6E010E106E3F50FAECC2
:100A580008F038EF05F081BE34EF05F036EF05F009
:100A680038EF05F0010E3C6EF00E8A6E3C50D8A4AB
:100A780040EF05F042EF05F04EEF05F03E04D8A434
:100A880048EF05F04AEF05F04EEF05F03F500A0D2C
:100A9800F3CF39F0020E3E6454EF05F056EF05F03F
:100AA80060EF05F03D50D8A45CEF05F05EEF05F06F
:100AB80060EF05F0020E3E6E210E156E760EE82EE2
:100AC800FED7152EFCD700D0366AF2901BC0F5FF72
:100AD8001AC0F8FF19C0F7FF18C0F6FF17C0F4FFD7
:100AE80016C0F3FF01921100136E50EF06F0010ECD
:100AF800316EABEF06F03150D8A485EF05F087EFE3
:100B080005F0ABEF06F0010E2B6E640E5CEC0DF0F9
:100B1800E10E116E7E0E126E1BEC0FF0ABEF06F0BD
:100B28003150D8A49AEF05F09CEF05F0ABEF06F032
:100B3800010E2B6E000E5CEC0DF07C0E116E7F0E1C
:100B4800126E1BEC0FF0ABEF06F0030E4418D8A49E
:100B5800B0EF05F0B2EF05F0ABEF06F039C038F0B2
:100B68003850395C376E010E3A6EBB0E116E7E0E30
:100B7800126E1BEC0FF0ABEF06F03150D8A4C7EFA4
:100B880005F0C9EF05F0ABEF06F0010E2B6E000E75
:100B98005CEC0DF06C0E116E7F0E126E1BEC0FF0FC
:100BA800ABEF06F03150D8A4DCEF05F0DEEF05F02E
:100BB800ABEF06F0010E2B6E140E5CEC0DF0170E69
:100BC800116E7F0E126E1BEC0FF0ABEF06F031507A
:100BD800D8A4F1EF05F0F3EF05F0ABEF06F0010E46
:100BE8002B6E280E5CEC0DF0280E116E7F0E126E27
:100BF8001BEC0FF0ABEF06F03150D8A406EF06F06F
:100C080008EF06F0ABEF06F0010E2B6E3C0E5CEC25
:100C18000DF0390E116E7F0E126E1BEC0FF0ABEF5C
:100C280006F03150D8A41BEF06F01DEF06F0ABEF2D
:100C380006F0010E2B6E500E5CEC0DF04A0E116E94
:100C48007F0E126E1BEC0FF0ABEF06F03150D8A4FC
:100C580030EF06F032EF06F0ABEF06F0010E2B6E28
:100C6800640E5CEC0DF0CF0E116E7E0E126E1BEC56
:100C78000FF0ABEF06F03150D8A445EF06F047EF80
:100C880006F0ABEF06F02B6A9C0E116E7F0E126E0B
:100C98001BEC0FF0ABEF06F01350410AD8B494EFF9
:100CA80005F0030AD8B415EF06F0010AD8B4EBEF43
:100CB80005F0060AD8B47FEF05F00B0AD8B42AEF7E
:100CC80006F01E0AD8B47BEF05F0010AD8B43FEF4E
:100CD80006F0030AD8B4A9EF05F0040AD8B400EF67
:100CE80006F00E0AD8B4D6EF05F0020AD8B4C1EF60
:100CF80005F03B0AD8B494EF05F0030AD8B415EF11
:100D080006F0010AD8B4EBEF05F0060AD8B47FEF75
:100D180005F00B0AD8B42AEF06F01E0AD8B47BEF08
:100D280005F0010AD8B43FEF06F0030AD8B4A9EFDA
:100D380005F0040AD8B400EF06F00E0AD8B4D6EFCE
:100D480005F0020AD8B4C1EF05F0ABEF06F01200C7
:100D5800D9EC0FF02F6E2F502E18D8B4B6EF06F03E
:100D6800B8EF06F0B9EF06F0366A2B50D8A4BFEFFB
:100D780006F0C1EF06F0CEEF06F02F50FA0DF3CFD4
:100D880002F0F4CF03F0000E056E046895EC0DF048
:100D98000250BE6EBE50640DF3CF08F0F4CF09F0D8
:100DA8000B6AFA0E0A6E61EC0AF008502A6E42507D
:100DB800640DF3CF02F0F4CF03F0056AFA0E046E67
:100DC80095EC0DF00250296E7F0E116E7E0E126E9C
:100DD8001BEC0FF02B50D8A4F4EF06F0F6EF06F05A
:100DE8002BEF07F02AC008F0096A0B6A640E0A6E36
:100DF80061EC0AF00850300FB0EC0FF0056A640E91
:100E0800046E2AC002F0036A76EC0BF002C008F008
:100E180003C009F00B6A0A0E0A6E61EC0AF008506A
:100E2800300FB0EC0FF02AC002F0036A056A0A0E10
:100E3800046E76EC0BF00250300FB0EC0FF0250E7C
:100E4800B0EC0FF00A0EB0EC0FF066EF07F02B04D1
:100E5800D8A431EF07F033EF07F066EF07F029C0A9
:100E680008F0096A0B6A640E0A6E61EC0AF0085011
:100E7800300FB0EC0FF0056A640E046E29C002F062
:100E8800036A76EC0BF002C008F003C009F00B6AA5
:100E98000A0E0A6E61EC0AF00850300FB0EC0FF041
:100EA80029C002F0036A056A0A0E046E76EC0BF09C
:100EB8000250300FB0EC0FF0250EB0EC0FF00A0E18
:100EC800B0EC0FF04128D8A46CEF07F06EEF07F0F4
:100ED80076EF07F06E0E116E7E0E126E1BEC0FF0A1
:100EE8009AEF07F05B0E116E7E0E126E1BEC0FF080
:100EF80041C008F0096A0B6A0A0E0A6E61EC0AF032
:100F08000850300FB0EC0FF041C002F0036A056AD8
:100F18000A0E046E76EC0BF00250300FB0EC0FF0B6
:100F2800FA0E116E7F0E126E1BEC0FF02FC02EF012
:100F38001200E3EC0FF09E0E206E7E0E216E000E66
:100F480023EC0DF0960E206E7E0E216E010E23EC22
:100F58000DF08E0E206E7E0E216E020E23EC0DF02B
:100F68000001886B0F0E896FE5EF07F08851800F3D
:100F78008FEC0FF0000E84EC0FF000018851C00FC9
:100F88008FEC0FF0000E84EC0FF000018951800FF8
:100F98008FEC0FF0010E84EC0FF000018951C00FA7
:100FA8008FEC0FF0010E84EC0FF00A0E0001866F33
:100FB800BC0EE82EFED7862FFCD700000001882B38
:100FC80089078951885DD8A0ECEF07F0EEEF07F0AC
:100FD800BAEF07F0876B8751800F8FEC0FF0020E86
:100FE80084EC0FF000018751C00F8FEC0FF0020E58
:100FF80084EC0FF0050E0001866FDD0EE82EFED79B
:10100800862FFCD700D00001872B0F0E87650FEFC6
:1010180008F011EF08F0EFEF07F0070E886F080EE1
:10102800896F42EF08F08851800F8FEC0FF0200E87
:1010380084EC0FF000018851C00F8FEC0FF0200EE8
:1010480084EC0FF000018951800F8FEC0FF0200E17
:1010580084EC0FF000018951C00F8FEC0FF0200EC7
:1010680084EC0FF0090E0001866F1C0EE82EFED7E7
:10107800862FFCD7000000018807892B0F0E896591
:1010880048EF08F04AEF08F017EF08F0C5EC0FF04A
:10109800CFEC0FF0120000018E6F8986E9EF08F09F
:1010A8008EC01CF01D6A1F6A0A0E1E6E1FEC0BF024
:1010B8001C5000018D6F8D51300F3AEC0EF0F3EC9F
:1010C8000FF0040ECEEC0DF0F9EF08F01F6A640E75
:1010D8001E6E8EC01CF01D6A1FEC0BF01CC082F047
:1010E8001DC083F00001856B0A0E846F00EC0AF0C6
:1010F800000182518C6F8EC01CF01D6A1F6A0A0E97
:101108001E6E1FEC0BF01C5000018D6F8C51300FC0
:101118003AEC0EF0F3EC0FF0040ECEEC0DF00001FB
:101128008D51300F3AEC0EF0F3EC0FF0040ECEECCC
:101138000DF0F9EF08F08EC082F0836B856B640EBA
:10114800846F00EC0AF0000182518B6F1F6A640EF5
:101158001E6E8EC01CF01D6A1FEC0BF01CC082F0C6
:101168001DC083F00001856B0A0E846F00EC0AF045
:10117800000182518C6F8EC01CF01D6A1F6A0A0E16
:101188001E6E1FEC0BF01C5000018D6F8B51300F41
:101198003AEC0EF0F3EC0FF0040ECEEC0DF000017B
:1011A8008C51300F3AEC0EF0F3EC0FF0040ECEEC4D
:1011B8000DF000018D51300F3AEC0EF0F3EC0FF00A
:1011C800040ECEEC0DF0F9EF08F000018A51010A87
:1011D800D8B454EF08F0030AD8B46AEF08F0010A4B
:1011E800D8B49FEF08F0F9EF08F01200146E898662
:1011F80088EF09F014C002F0036A056A0A0E046E4B
:1012080076EC0BF00250136E1350300F6BEC0EF0AF
:10121800FAEC0FF0040E04EC0EF097EF09F0056AF3
:10122800640E046E14C002F0036A76EC0BF002C080
:1012380008F003C009F00B6A0A0E0A6E61EC0AF0A6
:101248000850126E14C002F0036A056A0A0E046E92
:1012580076EC0BF00250136E1250300F6BEC0EF060
:10126800FAEC0FF0040E04EC0EF01350300F6BEC98
:101278000EF0FAEC0FF0040E04EC0EF097EF09F004
:1012880014C008F0096A0B6A640E0A6E61EC0AF071
:101298000850116E056A640E046E14C002F0036AE9
:1012A80076EC0BF002C008F003C009F00B6A0A0ED6
:1012B8000A6E61EC0AF00850126E14C002F0036A5C
:1012C800056A0A0E046E76EC0BF00250136E11508C
:1012D800300F6BEC0EF0FAEC0FF0040E04EC0EF08D
:1012E8001250300F6BEC0EF0FAEC0FF0040E04EC19
:1012F8000EF01350300F6BEC0EF0FAEC0FF0040EFA
:1013080004EC0EF097EF09F01050010AD8B4FEEF84
:1013180008F0030AD8B413EF09F0010AD8B444EF6F
:1013280009F097EF09F012008996040E4518D8A421
:10133800A0EF09F0A2EF09F0A8EF09F08C500F0B0D
:1013480030098C6EAAEF09F03F0E8C6EF3EC0FF0AB
:10135800010ECEEC0DF0040E4518D8A4B6EF09F036
:10136800B8EF09F0BEEF09F08C500F0B30098C6E06
:10137800C0EF09F03F0E8C6EF3EC0FF0030ECEECCD
:101388000DF0040E4518D8A4CCEF09F0CEEF09F003
:10139800D4EF09F08C500F0B30098C6ED6EF09F0A2
:1013A8003F0E8C6EF3EC0FF0040ECEEC0DF0040E35
:1013B8004518D8A4E2EF09F0E4EF09F0F5EF09F0D9
:1013C8008C500F0B20098C6EF3EC0FF0040ECEEC52
:1013D8000DF02F0E3AEC0EF0F3EC0FF0040ECEECFD
:1013E8000DF0C5EC0FF00F0E3AEC0EF0F3EC0FF029
:1013F800040ECEEC0DF012000001876B85BF09EFDB
:101408000AF007EF0AF00FEF0AF0846D851FD8B0D5
:10141800852B010E876F83BF16EF0AF014EF0AF0D1
:101428001CEF0AF0826D831FD8B0832B010E871B37
:10143800896B000E886F84518511D8B426EF0AF0A5
:1014480028EF0AF050EF0AF0010E866F30EF0AF02D
:10145800D89084378537862B85AF35EF0AF037EF7C
:101468000AF02CEF0AF0D890883789378451825DCA
:1014780085518359D8A043EF0AF045EF0AF04AEFA7
:101488000AF08451825F8551835B8881D8908533C7
:101498008433862F37EF0AF08751D8B456EF0AF015
:1014A80058EF0AF05CEF0AF0886D891FD8B0892BD5
:1014B80088C082F089C083F012000D6A0BBE69EF04
:1014C8000AF067EF0AF06FEF0AF00A6C0B1ED8B04B
:1014D8000B2A010E0D6E09BE76EF0AF074EF0AF0C2
:1014E8007CEF0AF0086C091ED8B0092A010E0D1A03
:1014F8000F6A000E0E6E0A500B10D8B486EF0AF071
:1015080088EF0AF0B0EF0AF0010E0C6E90EF0AF0C7
:10151800D8900A360B360C2A0BAE95EF0AF097EFE7
:101528000AF08CEF0AF0D8900E360F360A50085C95
:101538000B500958D8A0A3EF0AF0A5EF0AF0AAEFBC
:101548000AF00A50085E0B50095A0E80D8900B32E8
:101558000A320C2E97EF0AF00D50D8B4B6EF0AF005
:10156800B8EF0AF0BCEF0AF00E6C0F1ED8B00F2AC5
:101578000EC008F00FC009F01200010E406E276A75
:10158800040EBA6EA1909E90CF6A000ECE6ECD90DA
:10159800828000D0829082B2D4EF0AF0D6EF0AF0AF
:1015A800DEEF0AF04004D8B4DCEF0AF0DEEF0AF010
:1015B800CFEF0AF04050D8A4E4EF0AF0E6EF0AF0C3
:1015C800E9EF0AF0000E1EEF0BF0CD80A1B0EFEFAF
:1015D8000AF0F1EF0AF0F8EF0AF09EA0F6EF0AF031
:1015E800F8EF0AF0EAEF0AF0CD909EA0FEEF0AF0BD
:1015F80000EF0BF003EF0BF028681DEF0BF0E40E83
:10160800BB5C0D0EBC58D8A00CEF0BF00EEF0BF026
:1016180012EF0BF00D0EBC6EE40EBB6EBBCF1CF0D0
:10162800BCCF1DF01F6A0E0E1E6EB0EC0CF01C50E5
:10163800286E28501200216A1DBE27EF0BF025EFF7
:101648000BF02DEF0BF01C6C1D1ED8B01D2A010EDF
:10165800216E1FBE34EF0BF032EF0BF038EF0BF0BA
:101668001E6C1F1ED8B01F2A1E501F10D8B43FEF83
:101678000BF041EF0BF065EF0BF0010E206E49EF18
:101688000BF0D8901E361F36202A1FAE4EEF0BF0F7
:1016980050EF0BF045EF0BF01E501C5C1F501D580F
:1016A800D8A059EF0BF05BEF0BF05FEF0BF01E507B
:1016B8001C5E1F501D5AD8901F321E32202E50EF2C
:1016C8000BF02150D8B46BEF0BF06DEF0BF071EF0E
:1016D8000BF01C6C1D1ED8B01D2A1CC01CF01DC0B0
:1016E8001DF01200076A03BE7EEF0BF07CEF0BF0D3
:1016F80084EF0BF0026C031ED8B0032A010E076EAC
:1017080005BE8BEF0BF089EF0BF08FEF0BF0046C3D
:10171800051ED8B0052A04500510D8B496EF0BF072
:1017280098EF0BF0BCEF0BF0010E066EA0EF0BF07C
:10173800D89004360536062A05AEA5EF0BF0A7EFBC
:101748000BF09CEF0BF00450025C05500358D8A036
:10175800B0EF0BF0B2EF0BF0B6EF0BF00450025EF7
:101768000550035AD89005320432062EA7EF0BF025
:101778000750D8B4C2EF0BF0C4EF0BF0C8EF0BF072
:10178800026C031ED8B0032A02C002F003C003F0A3
:10179800120037C01CF01D6A1F6A0A0E1E6E1FEC6D
:1017A8000BF01C508C6E0A0E3760DDEF0BF0DFEF8C
:1017B8000BF0E3EF0BF0020E436E1CEF0CF0140E6F
:1017C8003760E9EF0BF0EBEF0BF0EFEF0BF0030EE8
:1017D800436E1CEF0CF01E0E3760F5EF0BF0F7EFC1
:1017E8000BF0FBEF0BF0010E436E1CEF0CF0280E14
:1017F800376001EF0CF003EF0CF007EF0CF0050E6B
:10180800436E1CEF0CF0320E37600DEF0CF00FEF4B
:101818000CF013EF0CF0040E436E1CEF0CF03C0EB2
:10182800376019EF0CF01BEF0CF01CEF0CF0436A5B
:1018380004EC10F0120037C002F0036A056A0A0EC1
:10184800046E76EC0BF002508C6E0A0E37602FEFA8
:101858000CF031EF0CF035EF0CF0020E436E6EEF2A
:101868000CF0140E37603BEF0CF03DEF0CF041EF3D
:101878000CF0030E436E6EEF0CF01E0E376047EF50
:101888000CF049EF0CF04DEF0CF0010E436E6EEFCB
:101898000CF0280E376053EF0CF055EF0CF059EFB1
:1018A8000CF0050E436E6EEF0CF0320E37605FEFF2
:1018B8000CF061EF0CF065EF0CF0040E436E6EEF68
:1018C8000CF03C0E37606BEF0CF06DEF0CF06EEF28
:1018D8000CF0436A07EC10F01200240EAC6E900E68
:1018E800AB6E080EB86E190EAF6E010EC26E0E0EFC
:1018F800C16E100EC06EF90EBE6E42C0BEFFCA6A3F
:10190800F90ECB6E0C0EBD6ECC6ACA84800ECD6EFD
:10191800CF6A000ECE6ECD90040EBA6EA090A19044
:10192800F294F28A010E926E110E896EF00E936E89
:101938008A6A020E946E8B6A956A8C6A966A070E9A
:101948008D6EF19E190E1C6E580EE82EFED71C2EB9
:10195800FCD700D0898A12000001846B000E836FC7
:101968001E501F10D8B4BBEF0CF0BDEF0CF0E5EF24
:101978000CF0010E826FC5EF0CF0D8901E361F36A2
:10198800822B1FAECAEF0CF0CCEF0CF0C1EF0CF0BD
:10199800D890833784371E501C5C1F501D58D8A020
:1019A800D8EF0CF0DAEF0CF0DFEF0CF01E501C5EF5
:1019B8001F501D5A8381D8901F321E32822FCCEFC0
:1019C8000CF083C01CF084C01DF012001C6E05EFE3
:1019D8000DF0FA0E426E20EF0DF0C80E426E20EFA9
:1019E8000DF0960E426E20EF0DF0640E426E20EF61
:1019F8000DF0320E426E20EF0DF0010E426E20EF18
:101A08000DF01C50000AD8B401EF0DF0140AD8B438
:101A1800FDEF0CF03C0AD8B4F9EF0CF0140AD8B476
:101A2800F5EF0CF06C0AD8B4F1EF0CF0340AD8B426
:101A3800EDEF0CF001EF0DF042C0BEFF1200000107
:101A4800846F899600018451080DF350400F3AECD9
:101A58000EF0F3EC0FF0040ECEEC0DF089860001C9
:101A6800856B85512024826F000E2120836F82C0F0
:101A7800F6FF83C0F7FF0800F5503AEC0EF0F3ECE0
:101A88000FF0040ECEEC0DF00001852B070E8565D6
:101A980050EF0DF052EF0DF035EF0DF08996800EF6
:101AA8003AEC0EF0F3EC0FF0040ECEEC0DF0120051
:101AB800026E77EF0DF0FA0E426E92EF0DF0C80E3F
:101AC800426E92EF0DF0960E426E92EF0DF0640E9C
:101AD800426E92EF0DF0320E426E92EF0DF0010E53
:101AE800426E92EF0DF00250000AD8B473EF0DF079
:101AF800140AD8B46FEF0DF03C0AD8B46BEF0DF0B0
:101B0800140AD8B467EF0DF06C0AD8B463EF0DF07F
:101B1800340AD8B45FEF0DF073EF0DF042C0BEFF8A
:101B28001200076A000E066E04500510D8B49FEF25
:101B38000DF0A1EF0DF0C9EF0DF0010E086EA9EF41
:101B48000DF0D89004360536082A05AEAEEF0DF034
:101B5800B0EF0DF0A5EF0DF0D8900636073604501B
:101B6800025C05500358D8A0BCEF0DF0BEEF0DF095
:101B7800C3EF0DF00450025E0550035A0680D8905A
:101B880005320432082EB0EF0DF006C002F007C08F
:101B980003F012001D6EF0EF0DF0050E1C6EDE0E48
:101BA800E82EFED71C2EFCD703EF0EF0530EE82EBE
:101BB800FED70000350EE82EFED7000003EF0EF02A
:101BC800080EE82EFED7000003EF0EF0030EE82EF5
:101BD800FED7000003EF0EF01D50010AD8B4D1EF74
:101BE8000DF0030AD8B4DAEF0DF0010AD8B4E4EF27
:101BF8000DF0070AD8B4EAEF0DF003EF0EF012006B
:101C0800036E26EF0EF0050E026EDE0EE82EFED7EE
:101C1800022EFCD739EF0EF0530EE82EFED7000047
:101C2800350EE82EFED7000039EF0EF0080EE82E2C
:101C3800FED7000039EF0EF0030EE82EFED70000A5
:101C480039EF0EF00350010AD8B407EF0EF0030A7B
:101C5800D8B410EF0EF0010AD8B41AEF0EF0070A44
:101C6800D8B420EF0EF039EF0EF012001F6E040EFC
:101C78004518D8A442EF0EF044EF0EF05FEF0EF0D7
:101C88001FC01EF0F00E1E168C500F0B1E108C6E0F
:101C9800F3EC0FF0010ECEEC0DF01FC01EF01E3A53
:101CA800F00E1E168C500F0B1E108C6E010ECEEC13
:101CB8000DF06AEF0EF0080E4518D8A466EF0EF086
:101CC80068EF0EF06AEF0EF01FC08CFF1200056E71
:101CD800040E4518D8A473EF0EF075EF0EF090EFD0
:101CE8000EF005C004F0F00E04168C500F0B041013
:101CF8008C6EFAEC0FF0010E04EC0EF005C004F047
:101D0800043AF00E04168C500F0B04108C6E010E62
:101D180004EC0EF09BEF0EF0080E4518D8A497EFD0
:101D28000EF099EF0EF09BEF0EF005C08CFF12003D
:101D3800B3EF0EF082C0F6FF83C0F7FFF86A070E14
:101D4800F76403D00800F55005D0F6CFE9FFF7CFC8
:101D5800EAFFEF5084EC0FF00001824B832B82C026
:101D6800F6FF83C0F7FFF86A070EF76403D0080090
:101D7800F55005D0F6CFE9FFF7CFEAFFEF5000099D
:101D8800D8A4C9EF0EF0CBEF0EF09EEF0EF01200C4
:101D9800C80EF66E1E0EF76E000EF86E00EE60F0BE
:101DA80010EE22F00900F5CFEEFFE550E150FAE120
:101DB800020EF66E200EF76E000EF86E00EE40F082
:101DC80010EE06F00900F5CFEEFFE550E150FAE11C
:101DD80000EE22F01E0EEE6AE806FDE10190019287
:101DE800000EF86E000109EF00F0060E436E04ECD9
:101DF80010F08C6AC5EC0FF0AB0E0001826F7F0EFD
:101E0800836F9CEC0EF0C00E8FEC0FF0E90E000112
:101E1800826F7F0E836F9CEC0EF0BBEC0FF0000E10
:101E2800EAEC0CF0F29E030013EF0FF0120027EF1C
:101E38000FF011C0F6FF12C0F7FF0800F550B0EC24
:101E48000FF0114A122A11C0F6FF12C0F7FF08005E
:101E5800F5500009D8A433EF0FF035EF0FF01DEF60
:101E68000FF012001D6E1DC0A9FF1CC0A8FFA69E82
:101E7800A69CA684F29E550EA76EAA0EA76EA682F1
:101E8800A6B249EF0FF04BEF0FF044EF0FF0A69416
:101E9800F28E12001C6E040E1C18D8B456EF0FF008
:101EA80058EF0FF061EF0FF0080E1C18D8A45FEF81
:101EB8000FF061EF0FF063EF0FF01CC045F0120058
:101EC800436F6E74656F20436F6D706C65746F211E
:101ED800005069657A6173206120636F6E74617266
:101EE8003A009D8AF28CF290F286020ED56EC20EEE
:101EF800D76EF70ED66EF294F28AF28ED58E120055
:101F0800206E898620503AEC0EF0F3EC0FF0040EA8
:101F1800CEEC0DF01200206E899620503AEC0EF0AF
:101F2800F3EC0FF0040ECEEC0DF01200066E89866D
:101F380006506BEC0EF0FAEC0FF0040E04EC0EF009
:101F48001200066E899606506BEC0EF0FAEC0FF054
:101F5800040E04EC0EF01200106EACA2B6EF0FF0F7
:101F6800B8EF0FF0B1EF0FF010C0ADFF1200899677
:101F78000C0E3AEC0EF0F3EC0FF0040ECEEC0DF074
:101F880012008996010E3AEC0EF0F3EC0FF0020EF7
:101F9800CEEC0DF0120089960E0E3AEC0EF0F3EC32
:101FA8000FF0040ECEEC0DF01200C282C2B2DFEFC9
:101FB8000FF0E1EF0FF0DAEF0FF0C4501200040E4B
:101FC8004EEC0FF098EC09F0BBEC0FF012001C6E11
:101FD8001CC0A9FFA69EA69CA680A85012008988AE
:101FE800030EE82EFED70000899812008988030E98
:101FF800E82EFED700008998120001FF01020108AF
:0C20080043C08DFF120043C08DFF12008A
:107E5A000044697374616E636961206F626A657454
:107E6A006F3A200053656E736F72204170616761CB
:107E7A00646F200A0056616C6F7220646520505747
:107E8A004D3A2000040A110A0A110A0410181C1E8D
:107E9A001E1C18100103070F0F07030152657365B3
:107EAA0074656F20706F7220736F667761726520D8
:107EBA0000436F6E74656F207265696E69636961EC
:107ECA00646F0D0A004D6F746F722050574D206118
:107EDA00203130300D0A004D6F746F7220656E6369
:107EEA00656E6469646F0D0A0046616C6C6120649A
:107EFA006520656E657267696120005265737461F9
:107F0A007572617220636F6E74656F3F004D6F7496
:107F1A006F722050574D20612032300D0A004D6F8C
:107F2A00746F722050574D20612034300D0A004D75
:107F3A006F746F722050574D20612036300D0A0041
:107F4A004D6F746F722050574D20612038300D0AE2
:107F5A000052657365742064652075737561726972
:107F6A006F004D6F746F722050574D206120300D95
:107F7A000A004D6F746F72206170616761646F0DE2
:107F8A000A002048616C6C6F20467265756E642128
:107F9A0020004D6F746F7220706F72204144430A43
:107FAA000020202020454D455247454E4359005652
:107FBA00616C6F722065727261646F0046616C74E5
:107FCA00616E746573203A00313D53492020203296
:107FDA003D4E4F004F626A657469766F203A002001
:107FEA00202020202053544F50004572726F720097
:067FFA0020636D0A000087
:020000040030CA
:080000000009191EFF8180FFB9
:00000001FF
